{
  "_format": "hh-sol-artifact-1",
  "contractName": "NFTMarketplace",
  "sourceName": "contracts/NFTMarketplace.sol",
  "abi": [
    {
      "inputs": [],
      "stateMutability": "nonpayable",
      "type": "constructor"
    },
    {
      "anonymous": false,
      "inputs": [
        {
          "indexed": true,
          "internalType": "address",
          "name": "owner",
          "type": "address"
        },
        {
          "indexed": true,
          "internalType": "address",
          "name": "approved",
          "type": "address"
        },
        {
          "indexed": true,
          "internalType": "uint256",
          "name": "tokenId",
          "type": "uint256"
        }
      ],
      "name": "Approval",
      "type": "event"
    },
    {
      "anonymous": false,
      "inputs": [
        {
          "indexed": true,
          "internalType": "address",
          "name": "owner",
          "type": "address"
        },
        {
          "indexed": true,
          "internalType": "address",
          "name": "operator",
          "type": "address"
        },
        {
          "indexed": false,
          "internalType": "bool",
          "name": "approved",
          "type": "bool"
        }
      ],
      "name": "ApprovalForAll",
      "type": "event"
    },
    {
      "anonymous": false,
      "inputs": [
        {
          "indexed": true,
          "internalType": "uint256",
          "name": "tokenId",
          "type": "uint256"
        },
        {
          "indexed": false,
          "internalType": "address",
          "name": "owner",
          "type": "address"
        },
        {
          "indexed": false,
          "internalType": "address",
          "name": "seller",
          "type": "address"
        },
        {
          "indexed": false,
          "internalType": "uint256",
          "name": "price",
          "type": "uint256"
        },
        {
          "indexed": false,
          "internalType": "bool",
          "name": "currentlyListed",
          "type": "bool"
        }
      ],
      "name": "TokenListedSuccess",
      "type": "event"
    },
    {
      "anonymous": false,
      "inputs": [
        {
          "indexed": true,
          "internalType": "address",
          "name": "from",
          "type": "address"
        },
        {
          "indexed": true,
          "internalType": "address",
          "name": "to",
          "type": "address"
        },
        {
          "indexed": true,
          "internalType": "uint256",
          "name": "tokenId",
          "type": "uint256"
        }
      ],
      "name": "Transfer",
      "type": "event"
    },
    {
      "anonymous": false,
      "inputs": [
        {
          "indexed": false,
          "internalType": "uint256",
          "name": "tokenId",
          "type": "uint256"
        },
        {
          "indexed": false,
          "internalType": "string",
          "name": "owner",
          "type": "string"
        }
      ],
      "name": "itemadded",
      "type": "event"
    },
    {
      "inputs": [
        {
          "internalType": "string",
          "name": "_owner",
          "type": "string"
        }
      ],
      "name": "addItem",
      "outputs": [],
      "stateMutability": "nonpayable",
      "type": "function"
    },
    {
      "inputs": [
        {
          "internalType": "address",
          "name": "to",
          "type": "address"
        },
        {
          "internalType": "uint256",
          "name": "tokenId",
          "type": "uint256"
        }
      ],
      "name": "approve",
      "outputs": [],
      "stateMutability": "nonpayable",
      "type": "function"
    },
    {
      "inputs": [
        {
          "internalType": "address",
          "name": "owner",
          "type": "address"
        }
      ],
      "name": "balanceOf",
      "outputs": [
        {
          "internalType": "uint256",
          "name": "",
          "type": "uint256"
        }
      ],
      "stateMutability": "view",
      "type": "function"
    },
    {
      "inputs": [
        {
          "internalType": "string",
          "name": "tokenURI",
          "type": "string"
        },
        {
          "internalType": "uint256",
          "name": "price",
          "type": "uint256"
        }
      ],
      "name": "createToken",
      "outputs": [
        {
          "internalType": "uint256",
          "name": "",
          "type": "uint256"
        }
      ],
      "stateMutability": "payable",
      "type": "function"
    },
    {
      "inputs": [
        {
          "internalType": "uint256",
          "name": "tokenId",
          "type": "uint256"
        }
      ],
      "name": "executeSale",
      "outputs": [],
      "stateMutability": "payable",
      "type": "function"
    },
    {
      "inputs": [],
      "name": "getAllNFTs",
      "outputs": [
        {
          "components": [
            {
              "internalType": "uint256",
              "name": "tokenId",
              "type": "uint256"
            },
            {
              "internalType": "address payable",
              "name": "owner",
              "type": "address"
            },
            {
              "internalType": "address payable",
              "name": "seller",
              "type": "address"
            },
            {
              "internalType": "uint256",
              "name": "price",
              "type": "uint256"
            },
            {
              "internalType": "bool",
              "name": "currentlyListed",
              "type": "bool"
            }
          ],
          "internalType": "struct NFTMarketplace.ListedToken[]",
          "name": "",
          "type": "tuple[]"
        }
      ],
      "stateMutability": "view",
      "type": "function"
    },
    {
      "inputs": [
        {
          "internalType": "uint256",
          "name": "tokenId",
          "type": "uint256"
        }
      ],
      "name": "getApproved",
      "outputs": [
        {
          "internalType": "address",
          "name": "",
          "type": "address"
        }
      ],
      "stateMutability": "view",
      "type": "function"
    },
    {
      "inputs": [],
      "name": "getCurrentToken",
      "outputs": [
        {
          "internalType": "uint256",
          "name": "",
          "type": "uint256"
        }
      ],
      "stateMutability": "view",
      "type": "function"
    },
    {
      "inputs": [],
      "name": "getId",
      "outputs": [
        {
          "internalType": "uint256",
          "name": "",
          "type": "uint256"
        }
      ],
      "stateMutability": "view",
      "type": "function"
    },
    {
      "inputs": [],
      "name": "getItems",
      "outputs": [
        {
          "components": [
            {
              "internalType": "uint256",
              "name": "tokenId",
              "type": "uint256"
            },
            {
              "internalType": "string",
              "name": "owner",
              "type": "string"
            }
          ],
          "internalType": "struct NFTMarketplace.item[]",
          "name": "",
          "type": "tuple[]"
        }
      ],
      "stateMutability": "view",
      "type": "function"
    },
    {
      "inputs": [],
      "name": "getLatestIdToListedToken",
      "outputs": [
        {
          "components": [
            {
              "internalType": "uint256",
              "name": "tokenId",
              "type": "uint256"
            },
            {
              "internalType": "address payable",
              "name": "owner",
              "type": "address"
            },
            {
              "internalType": "address payable",
              "name": "seller",
              "type": "address"
            },
            {
              "internalType": "uint256",
              "name": "price",
              "type": "uint256"
            },
            {
              "internalType": "bool",
              "name": "currentlyListed",
              "type": "bool"
            }
          ],
          "internalType": "struct NFTMarketplace.ListedToken",
          "name": "",
          "type": "tuple"
        }
      ],
      "stateMutability": "view",
      "type": "function"
    },
    {
      "inputs": [],
      "name": "getListPrice",
      "outputs": [
        {
          "internalType": "uint256",
          "name": "",
          "type": "uint256"
        }
      ],
      "stateMutability": "view",
      "type": "function"
    },
    {
      "inputs": [
        {
          "internalType": "uint256",
          "name": "tokenId",
          "type": "uint256"
        }
      ],
      "name": "getListedTokenForId",
      "outputs": [
        {
          "components": [
            {
              "internalType": "uint256",
              "name": "tokenId",
              "type": "uint256"
            },
            {
              "internalType": "address payable",
              "name": "owner",
              "type": "address"
            },
            {
              "internalType": "address payable",
              "name": "seller",
              "type": "address"
            },
            {
              "internalType": "uint256",
              "name": "price",
              "type": "uint256"
            },
            {
              "internalType": "bool",
              "name": "currentlyListed",
              "type": "bool"
            }
          ],
          "internalType": "struct NFTMarketplace.ListedToken",
          "name": "",
          "type": "tuple"
        }
      ],
      "stateMutability": "view",
      "type": "function"
    },
    {
      "inputs": [],
      "name": "getMyNFTs",
      "outputs": [
        {
          "components": [
            {
              "internalType": "uint256",
              "name": "tokenId",
              "type": "uint256"
            },
            {
              "internalType": "address payable",
              "name": "owner",
              "type": "address"
            },
            {
              "internalType": "address payable",
              "name": "seller",
              "type": "address"
            },
            {
              "internalType": "uint256",
              "name": "price",
              "type": "uint256"
            },
            {
              "internalType": "bool",
              "name": "currentlyListed",
              "type": "bool"
            }
          ],
          "internalType": "struct NFTMarketplace.ListedToken[]",
          "name": "",
          "type": "tuple[]"
        }
      ],
      "stateMutability": "view",
      "type": "function"
    },
    {
      "inputs": [],
      "name": "gettest",
      "outputs": [
        {
          "internalType": "string",
          "name": "",
          "type": "string"
        }
      ],
      "stateMutability": "view",
      "type": "function"
    },
    {
      "inputs": [],
      "name": "id",
      "outputs": [
        {
          "internalType": "uint256",
          "name": "",
          "type": "uint256"
        }
      ],
      "stateMutability": "view",
      "type": "function"
    },
    {
      "inputs": [
        {
          "internalType": "address",
          "name": "owner",
          "type": "address"
        },
        {
          "internalType": "address",
          "name": "operator",
          "type": "address"
        }
      ],
      "name": "isApprovedForAll",
      "outputs": [
        {
          "internalType": "bool",
          "name": "",
          "type": "bool"
        }
      ],
      "stateMutability": "view",
      "type": "function"
    },
    {
      "inputs": [],
      "name": "name",
      "outputs": [
        {
          "internalType": "string",
          "name": "",
          "type": "string"
        }
      ],
      "stateMutability": "view",
      "type": "function"
    },
    {
      "inputs": [
        {
          "internalType": "uint256",
          "name": "tokenId",
          "type": "uint256"
        }
      ],
      "name": "ownerOf",
      "outputs": [
        {
          "internalType": "address",
          "name": "",
          "type": "address"
        }
      ],
      "stateMutability": "view",
      "type": "function"
    },
    {
      "inputs": [
        {
          "internalType": "address",
          "name": "from",
          "type": "address"
        },
        {
          "internalType": "address",
          "name": "to",
          "type": "address"
        },
        {
          "internalType": "uint256",
          "name": "tokenId",
          "type": "uint256"
        }
      ],
      "name": "safeTransferFrom",
      "outputs": [],
      "stateMutability": "nonpayable",
      "type": "function"
    },
    {
      "inputs": [
        {
          "internalType": "address",
          "name": "from",
          "type": "address"
        },
        {
          "internalType": "address",
          "name": "to",
          "type": "address"
        },
        {
          "internalType": "uint256",
          "name": "tokenId",
          "type": "uint256"
        },
        {
          "internalType": "bytes",
          "name": "data",
          "type": "bytes"
        }
      ],
      "name": "safeTransferFrom",
      "outputs": [],
      "stateMutability": "nonpayable",
      "type": "function"
    },
    {
      "inputs": [
        {
          "internalType": "address",
          "name": "operator",
          "type": "address"
        },
        {
          "internalType": "bool",
          "name": "approved",
          "type": "bool"
        }
      ],
      "name": "setApprovalForAll",
      "outputs": [],
      "stateMutability": "nonpayable",
      "type": "function"
    },
    {
      "inputs": [
        {
          "internalType": "bytes4",
          "name": "interfaceId",
          "type": "bytes4"
        }
      ],
      "name": "supportsInterface",
      "outputs": [
        {
          "internalType": "bool",
          "name": "",
          "type": "bool"
        }
      ],
      "stateMutability": "view",
      "type": "function"
    },
    {
      "inputs": [],
      "name": "symbol",
      "outputs": [
        {
          "internalType": "string",
          "name": "",
          "type": "string"
        }
      ],
      "stateMutability": "view",
      "type": "function"
    },
    {
      "inputs": [
        {
          "internalType": "uint256",
          "name": "tokenId",
          "type": "uint256"
        }
      ],
      "name": "tokenURI",
      "outputs": [
        {
          "internalType": "string",
          "name": "",
          "type": "string"
        }
      ],
      "stateMutability": "view",
      "type": "function"
    },
    {
      "inputs": [
        {
          "internalType": "address",
          "name": "from",
          "type": "address"
        },
        {
          "internalType": "address",
          "name": "to",
          "type": "address"
        },
        {
          "internalType": "uint256",
          "name": "tokenId",
          "type": "uint256"
        }
      ],
      "name": "transferFrom",
      "outputs": [],
      "stateMutability": "nonpayable",
      "type": "function"
    },
    {
      "inputs": [
        {
          "internalType": "uint256",
          "name": "_listPrice",
          "type": "uint256"
        }
      ],
      "name": "updateListPrice",
      "outputs": [],
      "stateMutability": "payable",
      "type": "function"
    }
  ],
  "bytecode": "0x6080604052662386f26fc10000600a556040518060400160405280600581526020017f48656c6c6f000000000000000000000000000000000000000000000000000000815250600c9081620000559190620003b7565b503480156200006357600080fd5b506040518060400160405280600e81526020017f4e46544d61726b6574706c6163650000000000000000000000000000000000008152506040518060400160405280600481526020017f4e46544d000000000000000000000000000000000000000000000000000000008152508160009081620000e19190620003b7565b508060019081620000f39190620003b7565b50505033600960006101000a81548173ffffffffffffffffffffffffffffffffffffffff021916908373ffffffffffffffffffffffffffffffffffffffff1602179055506200049e565b600081519050919050565b7f4e487b7100000000000000000000000000000000000000000000000000000000600052604160045260246000fd5b7f4e487b7100000000000000000000000000000000000000000000000000000000600052602260045260246000fd5b60006002820490506001821680620001bf57607f821691505b602082108103620001d557620001d462000177565b5b50919050565b60008190508160005260206000209050919050565b60006020601f8301049050919050565b600082821b905092915050565b6000600883026200023f7fffffffffffffffffffffffffffffffffffffffffffffffffffffffffffffffff8262000200565b6200024b868362000200565b95508019841693508086168417925050509392505050565b6000819050919050565b6000819050919050565b600062000298620002926200028c8462000263565b6200026d565b62000263565b9050919050565b6000819050919050565b620002b48362000277565b620002cc620002c3826200029f565b8484546200020d565b825550505050565b600090565b620002e3620002d4565b620002f0818484620002a9565b505050565b5b8181101562000318576200030c600082620002d9565b600181019050620002f6565b5050565b601f82111562000367576200033181620001db565b6200033c84620001f0565b810160208510156200034c578190505b620003646200035b85620001f0565b830182620002f5565b50505b505050565b600082821c905092915050565b60006200038c600019846008026200036c565b1980831691505092915050565b6000620003a7838362000379565b9150826002028217905092915050565b620003c2826200013d565b67ffffffffffffffff811115620003de57620003dd62000148565b5b620003ea8254620001a6565b620003f78282856200031c565b600060209050601f8311600181146200042f57600084156200041a578287015190505b62000426858262000399565b86555062000496565b601f1984166200043f86620001db565b60005b82811015620004695784890151825560018201915060208501945060208101905062000442565b8683101562000489578489015162000485601f89168262000379565b8355505b6001600288020188555050505b505050505050565b61460f80620004ae6000396000f3fe60806040526004361061019c5760003560e01c806372b3b620116100ec578063b88d4fde1161008a578063d1a88ae511610064578063d1a88ae5146105c5578063e0391b09146105f0578063e985e9c51461061b578063ef2d1746146106585761019c565b8063b88d4fde14610543578063c322579c1461056c578063c87b56dd146105885761019c565b80639b1225c4116100c65780639b1225c4146104a8578063a22cb465146104c4578063a941ae43146104ed578063af640d0f146105185761019c565b806372b3b620146104105780638e2645901461044057806395d89b411461047d5761019c565b8063410d59cc11610159578063629cb2e411610133578063629cb2e4146103405780636352211e1461036b57806368f1945f146103a857806370a08231146103d35761019c565b8063410d59cc146102c157806342842e0e146102ec5780635d1ca631146103155761019c565b806301ffc9a7146101a157806306fdde03146101de578063081812fc14610209578063095ea7b31461024657806323b872dd1461026f57806327e9f29414610298575b600080fd5b3480156101ad57600080fd5b506101c860048036038101906101c39190612d84565b610683565b6040516101d59190612dcc565b60405180910390f35b3480156101ea57600080fd5b506101f3610765565b6040516102009190612e77565b60405180910390f35b34801561021557600080fd5b50610230600480360381019061022b9190612ecf565b6107f7565b60405161023d9190612f3d565b60405180910390f35b34801561025257600080fd5b5061026d60048036038101906102689190612f84565b61083d565b005b34801561027b57600080fd5b5061029660048036038101906102919190612fc4565b610954565b005b3480156102a457600080fd5b506102bf60048036038101906102ba919061314c565b6109b4565b005b3480156102cd57600080fd5b506102d6610a6e565b6040516102e391906132ed565b60405180910390f35b3480156102f857600080fd5b50610313600480360381019061030e9190612fc4565b610b69565b005b34801561032157600080fd5b5061032a610b89565b604051610337919061331e565b60405180910390f35b34801561034c57600080fd5b50610355610b93565b6040516103629190613480565b60405180910390f35b34801561037757600080fd5b50610392600480360381019061038d9190612ecf565b610f74565b60405161039f9190612f3d565b60405180910390f35b3480156103b457600080fd5b506103bd610ffa565b6040516103ca919061331e565b60405180910390f35b3480156103df57600080fd5b506103fa60048036038101906103f591906134a2565b611004565b604051610407919061331e565b60405180910390f35b61042a600480360381019061042591906134cf565b6110bb565b604051610437919061331e565b60405180910390f35b34801561044c57600080fd5b5061046760048036038101906104629190612ecf565b6110fd565b6040516104749190613593565b60405180910390f35b34801561048957600080fd5b50610492611205565b60405161049f9190612e77565b60405180910390f35b6104c260048036038101906104bd9190612ecf565b611297565b005b3480156104d057600080fd5b506104eb60048036038101906104e691906135da565b611489565b005b3480156104f957600080fd5b5061050261149f565b60405161050f9190612e77565b60405180910390f35b34801561052457600080fd5b5061052d611531565b60405161053a919061331e565b60405180910390f35b34801561054f57600080fd5b5061056a600480360381019061056591906136bb565b611537565b005b61058660048036038101906105819190612ecf565b611599565b005b34801561059457600080fd5b506105af60048036038101906105aa9190612ecf565b611633565b6040516105bc9190612e77565b60405180910390f35b3480156105d157600080fd5b506105da611745565b6040516105e79190613593565b60405180910390f35b3480156105fc57600080fd5b5061060561185a565b6040516106129190613480565b60405180910390f35b34801561062757600080fd5b50610642600480360381019061063d919061373e565b611a2c565b60405161064f9190612dcc565b60405180910390f35b34801561066457600080fd5b5061066d611ac0565b60405161067a919061331e565b60405180910390f35b60007f80ac58cd000000000000000000000000000000000000000000000000000000007bffffffffffffffffffffffffffffffffffffffffffffffffffffffff1916827bffffffffffffffffffffffffffffffffffffffffffffffffffffffff1916148061074e57507f5b5e139f000000000000000000000000000000000000000000000000000000007bffffffffffffffffffffffffffffffffffffffffffffffffffffffff1916827bffffffffffffffffffffffffffffffffffffffffffffffffffffffff1916145b8061075e575061075d82611ad1565b5b9050919050565b606060008054610774906137ad565b80601f01602080910402602001604051908101604052809291908181526020018280546107a0906137ad565b80156107ed5780601f106107c2576101008083540402835291602001916107ed565b820191906000526020600020905b8154815290600101906020018083116107d057829003601f168201915b5050505050905090565b600061080282611b3b565b6004600083815260200190815260200160002060009054906101000a900473ffffffffffffffffffffffffffffffffffffffff169050919050565b600061084882610f74565b90508073ffffffffffffffffffffffffffffffffffffffff168373ffffffffffffffffffffffffffffffffffffffff16036108b8576040517f08c379a00000000000000000000000000000000000000000000000000000000081526004016108af90613850565b60405180910390fd5b8073ffffffffffffffffffffffffffffffffffffffff166108d7611b86565b73ffffffffffffffffffffffffffffffffffffffff161480610906575061090581610900611b86565b611a2c565b5b610945576040517f08c379a000000000000000000000000000000000000000000000000000000000815260040161093c906138e2565b60405180910390fd5b61094f8383611b8e565b505050565b61096561095f611b86565b82611c47565b6109a4576040517f08c379a000000000000000000000000000000000000000000000000000000000815260040161099b90613974565b60405180910390fd5b6109af838383611cdc565b505050565b6000600b600081546109c5906139c3565b9190508190559050600d6040518060400160405280838152602001848152509080600181540180825580915050600190039060005260206000209060020201600090919091909150600082015181600001556020820151816001019081610a2c9190613bb7565b5050507f7b74d241801e5e212e228fe538934bac3fe66507b4a2598818946dcefcf6e6fc600b5483604051610a62929190613c89565b60405180910390a15050565b6060600d805480602002602001604051908101604052809291908181526020016000905b82821015610b60578382906000526020600020906002020160405180604001604052908160008201548152602001600182018054610acf906137ad565b80601f0160208091040260200160405190810160405280929190818152602001828054610afb906137ad565b8015610b485780601f10610b1d57610100808354040283529160200191610b48565b820191906000526020600020905b815481529060010190602001808311610b2b57829003601f168201915b50505050508152505081526020019060010190610a92565b50505050905090565b610b8483838360405180602001604052806000815250611537565b505050565b6000600b54905090565b60606000610ba16007611fd5565b9050600080600080600090505b84811015610cc7573373ffffffffffffffffffffffffffffffffffffffff16600e6000600184610bde9190613cb9565b815260200190815260200160002060010160009054906101000a900473ffffffffffffffffffffffffffffffffffffffff1673ffffffffffffffffffffffffffffffffffffffff161480610c9f57503373ffffffffffffffffffffffffffffffffffffffff16600e6000600184610c559190613cb9565b815260200190815260200160002060020160009054906101000a900473ffffffffffffffffffffffffffffffffffffffff1673ffffffffffffffffffffffffffffffffffffffff16145b15610cb457600184610cb19190613cb9565b93505b8080610cbf906139c3565b915050610bae565b5060008367ffffffffffffffff811115610ce457610ce3613021565b5b604051908082528060200260200182016040528015610d1d57816020015b610d0a612cbb565b815260200190600190039081610d025790505b50905060005b85811015610f68573373ffffffffffffffffffffffffffffffffffffffff16600e6000600184610d539190613cb9565b815260200190815260200160002060010160009054906101000a900473ffffffffffffffffffffffffffffffffffffffff1673ffffffffffffffffffffffffffffffffffffffff161480610e1457503373ffffffffffffffffffffffffffffffffffffffff16600e6000600184610dca9190613cb9565b815260200190815260200160002060020160009054906101000a900473ffffffffffffffffffffffffffffffffffffffff1673ffffffffffffffffffffffffffffffffffffffff16145b15610f5557600181610e269190613cb9565b92506000600e60008581526020019081526020016000209050806040518060a0016040529081600082015481526020016001820160009054906101000a900473ffffffffffffffffffffffffffffffffffffffff1673ffffffffffffffffffffffffffffffffffffffff1673ffffffffffffffffffffffffffffffffffffffff1681526020016002820160009054906101000a900473ffffffffffffffffffffffffffffffffffffffff1673ffffffffffffffffffffffffffffffffffffffff1673ffffffffffffffffffffffffffffffffffffffff168152602001600382015481526020016004820160009054906101000a900460ff161515151581525050838681518110610f3957610f38613ced565b5b6020026020010181905250600185610f519190613cb9565b9450505b8080610f60906139c3565b915050610d23565b50809550505050505090565b600080610f8083611fe3565b9050600073ffffffffffffffffffffffffffffffffffffffff168173ffffffffffffffffffffffffffffffffffffffff1603610ff1576040517f08c379a0000000000000000000000000000000000000000000000000000000008152600401610fe890613d68565b60405180910390fd5b80915050919050565b6000600a54905090565b60008073ffffffffffffffffffffffffffffffffffffffff168273ffffffffffffffffffffffffffffffffffffffff1603611074576040517f08c379a000000000000000000000000000000000000000000000000000000000815260040161106b90613dfa565b60405180910390fd5b600360008373ffffffffffffffffffffffffffffffffffffffff1673ffffffffffffffffffffffffffffffffffffffff168152602001908152602001600020549050919050565b60006110c76007612020565b60006110d36007611fd5565b90506110df3382612036565b6110e98185612054565b6110f381846120c1565b8091505092915050565b611105612cbb565b600e60008381526020019081526020016000206040518060a0016040529081600082015481526020016001820160009054906101000a900473ffffffffffffffffffffffffffffffffffffffff1673ffffffffffffffffffffffffffffffffffffffff1673ffffffffffffffffffffffffffffffffffffffff1681526020016002820160009054906101000a900473ffffffffffffffffffffffffffffffffffffffff1673ffffffffffffffffffffffffffffffffffffffff1673ffffffffffffffffffffffffffffffffffffffff168152602001600382015481526020016004820160009054906101000a900460ff1615151515815250509050919050565b606060018054611214906137ad565b80601f0160208091040260200160405190810160405280929190818152602001828054611240906137ad565b801561128d5780601f106112625761010080835404028352916020019161128d565b820191906000526020600020905b81548152906001019060200180831161127057829003601f168201915b5050505050905090565b6000600e60008381526020019081526020016000206003015490506000600e600084815260200190815260200160002060020160009054906101000a900473ffffffffffffffffffffffffffffffffffffffff16905081341461132f576040517f08c379a000000000000000000000000000000000000000000000000000000000815260040161132690613e8c565b60405180910390fd5b6001600e600085815260200190815260200160002060040160006101000a81548160ff02191690831515021790555033600e600085815260200190815260200160002060020160006101000a81548173ffffffffffffffffffffffffffffffffffffffff021916908373ffffffffffffffffffffffffffffffffffffffff1602179055506113bd6008612020565b6113c8303385611cdc565b6113d2308461083d565b600960009054906101000a900473ffffffffffffffffffffffffffffffffffffffff1673ffffffffffffffffffffffffffffffffffffffff166108fc600a549081150290604051600060405180830381858888f1935050505015801561143c573d6000803e3d6000fd5b508073ffffffffffffffffffffffffffffffffffffffff166108fc349081150290604051600060405180830381858888f19350505050158015611483573d6000803e3d6000fd5b50505050565b61149b611494611b86565b83836122c4565b5050565b6060600c80546114ae906137ad565b80601f01602080910402602001604051908101604052809291908181526020018280546114da906137ad565b80156115275780601f106114fc57610100808354040283529160200191611527565b820191906000526020600020905b81548152906001019060200180831161150a57829003601f168201915b5050505050905090565b600b5481565b611548611542611b86565b83611c47565b611587576040517f08c379a000000000000000000000000000000000000000000000000000000000815260040161157e90613974565b60405180910390fd5b61159384848484612430565b50505050565b3373ffffffffffffffffffffffffffffffffffffffff16600960009054906101000a900473ffffffffffffffffffffffffffffffffffffffff1673ffffffffffffffffffffffffffffffffffffffff1614611629576040517f08c379a000000000000000000000000000000000000000000000000000000000815260040161162090613f1e565b60405180910390fd5b80600a8190555050565b606061163e82611b3b565b600060066000848152602001908152602001600020805461165e906137ad565b80601f016020809104026020016040519081016040528092919081815260200182805461168a906137ad565b80156116d75780601f106116ac576101008083540402835291602001916116d7565b820191906000526020600020905b8154815290600101906020018083116116ba57829003601f168201915b5050505050905060006116e861248c565b905060008151036116fd578192505050611740565b60008251111561173257808260405160200161171a929190613f7a565b60405160208183030381529060405292505050611740565b61173b846124a3565b925050505b919050565b61174d612cbb565b60006117596007611fd5565b9050600e60008281526020019081526020016000206040518060a0016040529081600082015481526020016001820160009054906101000a900473ffffffffffffffffffffffffffffffffffffffff1673ffffffffffffffffffffffffffffffffffffffff1673ffffffffffffffffffffffffffffffffffffffff1681526020016002820160009054906101000a900473ffffffffffffffffffffffffffffffffffffffff1673ffffffffffffffffffffffffffffffffffffffff1673ffffffffffffffffffffffffffffffffffffffff168152602001600382015481526020016004820160009054906101000a900460ff16151515158152505091505090565b606060006118686007611fd5565b905060008167ffffffffffffffff81111561188657611885613021565b5b6040519080825280602002602001820160405280156118bf57816020015b6118ac612cbb565b8152602001906001900390816118a45790505b50905060008080600090505b84811015611a21576001816118e09190613cb9565b91506000600e60008481526020019081526020016000209050806040518060a0016040529081600082015481526020016001820160009054906101000a900473ffffffffffffffffffffffffffffffffffffffff1673ffffffffffffffffffffffffffffffffffffffff1673ffffffffffffffffffffffffffffffffffffffff1681526020016002820160009054906101000a900473ffffffffffffffffffffffffffffffffffffffff1673ffffffffffffffffffffffffffffffffffffffff1673ffffffffffffffffffffffffffffffffffffffff168152602001600382015481526020016004820160009054906101000a900460ff1615151515815250508585815181106119f3576119f2613ced565b5b6020026020010181905250600184611a0b9190613cb9565b9350508080611a19906139c3565b9150506118cb565b508294505050505090565b6000600560008473ffffffffffffffffffffffffffffffffffffffff1673ffffffffffffffffffffffffffffffffffffffff16815260200190815260200160002060008373ffffffffffffffffffffffffffffffffffffffff1673ffffffffffffffffffffffffffffffffffffffff16815260200190815260200160002060009054906101000a900460ff16905092915050565b6000611acc6007611fd5565b905090565b60007f01ffc9a7000000000000000000000000000000000000000000000000000000007bffffffffffffffffffffffffffffffffffffffffffffffffffffffff1916827bffffffffffffffffffffffffffffffffffffffffffffffffffffffff1916149050919050565b611b448161250b565b611b83576040517f08c379a0000000000000000000000000000000000000000000000000000000008152600401611b7a90613d68565b60405180910390fd5b50565b600033905090565b816004600083815260200190815260200160002060006101000a81548173ffffffffffffffffffffffffffffffffffffffff021916908373ffffffffffffffffffffffffffffffffffffffff160217905550808273ffffffffffffffffffffffffffffffffffffffff16611c0183610f74565b73ffffffffffffffffffffffffffffffffffffffff167f8c5be1e5ebec7d5bd14f71427d1e84f3dd0314c0f7b2291e5b200ac8c7c3b92560405160405180910390a45050565b600080611c5383610f74565b90508073ffffffffffffffffffffffffffffffffffffffff168473ffffffffffffffffffffffffffffffffffffffff161480611c955750611c948185611a2c565b5b80611cd357508373ffffffffffffffffffffffffffffffffffffffff16611cbb846107f7565b73ffffffffffffffffffffffffffffffffffffffff16145b91505092915050565b8273ffffffffffffffffffffffffffffffffffffffff16611cfc82610f74565b73ffffffffffffffffffffffffffffffffffffffff1614611d52576040517f08c379a0000000000000000000000000000000000000000000000000000000008152600401611d4990614010565b60405180910390fd5b600073ffffffffffffffffffffffffffffffffffffffff168273ffffffffffffffffffffffffffffffffffffffff1603611dc1576040517f08c379a0000000000000000000000000000000000000000000000000000000008152600401611db8906140a2565b60405180910390fd5b611dce838383600161254c565b8273ffffffffffffffffffffffffffffffffffffffff16611dee82610f74565b73ffffffffffffffffffffffffffffffffffffffff1614611e44576040517f08c379a0000000000000000000000000000000000000000000000000000000008152600401611e3b90614010565b60405180910390fd5b6004600082815260200190815260200160002060006101000a81549073ffffffffffffffffffffffffffffffffffffffff02191690556001600360008573ffffffffffffffffffffffffffffffffffffffff1673ffffffffffffffffffffffffffffffffffffffff168152602001908152602001600020600082825403925050819055506001600360008473ffffffffffffffffffffffffffffffffffffffff1673ffffffffffffffffffffffffffffffffffffffff16815260200190815260200160002060008282540192505081905550816002600083815260200190815260200160002060006101000a81548173ffffffffffffffffffffffffffffffffffffffff021916908373ffffffffffffffffffffffffffffffffffffffff160217905550808273ffffffffffffffffffffffffffffffffffffffff168473ffffffffffffffffffffffffffffffffffffffff167fddf252ad1be2c89b69c2b068fc378daa952ba7f163c4a11628f55a4df523b3ef60405160405180910390a4611fd08383836001612672565b505050565b600081600001549050919050565b60006002600083815260200190815260200160002060009054906101000a900473ffffffffffffffffffffffffffffffffffffffff169050919050565b6001816000016000828254019250508190555050565b612050828260405180602001604052806000815250612678565b5050565b61205d8261250b565b61209c576040517f08c379a000000000000000000000000000000000000000000000000000000000815260040161209390614134565b60405180910390fd5b806006600084815260200190815260200160002090816120bc9190613bb7565b505050565b600a543414612105576040517f08c379a00000000000000000000000000000000000000000000000000000000081526004016120fc906141c6565b60405180910390fd5b60008111612148576040517f08c379a000000000000000000000000000000000000000000000000000000000815260040161213f90614258565b60405180910390fd5b6040518060a001604052808381526020013073ffffffffffffffffffffffffffffffffffffffff1681526020013373ffffffffffffffffffffffffffffffffffffffff16815260200182815260200160011515815250600e60008481526020019081526020016000206000820151816000015560208201518160010160006101000a81548173ffffffffffffffffffffffffffffffffffffffff021916908373ffffffffffffffffffffffffffffffffffffffff16021790555060408201518160020160006101000a81548173ffffffffffffffffffffffffffffffffffffffff021916908373ffffffffffffffffffffffffffffffffffffffff1602179055506060820151816003015560808201518160040160006101000a81548160ff021916908315150217905550905050612281333084611cdc565b817f9339409317fd01fabff48b703019016f49159bacc801ae872d2ca637d226e4c030338460016040516122b89493929190614278565b60405180910390a25050565b8173ffffffffffffffffffffffffffffffffffffffff168373ffffffffffffffffffffffffffffffffffffffff1603612332576040517f08c379a000000000000000000000000000000000000000000000000000000000815260040161232990614309565b60405180910390fd5b80600560008573ffffffffffffffffffffffffffffffffffffffff1673ffffffffffffffffffffffffffffffffffffffff16815260200190815260200160002060008473ffffffffffffffffffffffffffffffffffffffff1673ffffffffffffffffffffffffffffffffffffffff16815260200190815260200160002060006101000a81548160ff0219169083151502179055508173ffffffffffffffffffffffffffffffffffffffff168373ffffffffffffffffffffffffffffffffffffffff167f17307eab39ab6107e8899845ad3d59bd9653f200f220920489ca2b5937696c31836040516124239190612dcc565b60405180910390a3505050565b61243b848484611cdc565b612447848484846126d3565b612486576040517f08c379a000000000000000000000000000000000000000000000000000000000815260040161247d9061439b565b60405180910390fd5b50505050565b606060405180602001604052806000815250905090565b60606124ae82611b3b565b60006124b861248c565b905060008151116124d85760405180602001604052806000815250612503565b806124e28461285a565b6040516020016124f3929190613f7a565b6040516020818303038152906040525b915050919050565b60008073ffffffffffffffffffffffffffffffffffffffff1661252d83611fe3565b73ffffffffffffffffffffffffffffffffffffffff1614159050919050565b600181111561266c57600073ffffffffffffffffffffffffffffffffffffffff168473ffffffffffffffffffffffffffffffffffffffff16146125e05780600360008673ffffffffffffffffffffffffffffffffffffffff1673ffffffffffffffffffffffffffffffffffffffff16815260200190815260200160002060008282546125d891906143bb565b925050819055505b600073ffffffffffffffffffffffffffffffffffffffff168373ffffffffffffffffffffffffffffffffffffffff161461266b5780600360008573ffffffffffffffffffffffffffffffffffffffff1673ffffffffffffffffffffffffffffffffffffffff16815260200190815260200160002060008282546126639190613cb9565b925050819055505b5b50505050565b50505050565b6126828383612928565b61268f60008484846126d3565b6126ce576040517f08c379a00000000000000000000000000000000000000000000000000000000081526004016126c59061439b565b60405180910390fd5b505050565b60006126f48473ffffffffffffffffffffffffffffffffffffffff16612b45565b1561284d578373ffffffffffffffffffffffffffffffffffffffff1663150b7a0261271d611b86565b8786866040518563ffffffff1660e01b815260040161273f9493929190614444565b6020604051808303816000875af192505050801561277b57506040513d601f19601f8201168201806040525081019061277891906144a5565b60015b6127fd573d80600081146127ab576040519150601f19603f3d011682016040523d82523d6000602084013e6127b0565b606091505b5060008151036127f5576040517f08c379a00000000000000000000000000000000000000000000000000000000081526004016127ec9061439b565b60405180910390fd5b805181602001fd5b63150b7a0260e01b7bffffffffffffffffffffffffffffffffffffffffffffffffffffffff1916817bffffffffffffffffffffffffffffffffffffffffffffffffffffffff191614915050612852565b600190505b949350505050565b60606000600161286984612b68565b01905060008167ffffffffffffffff81111561288857612887613021565b5b6040519080825280601f01601f1916602001820160405280156128ba5781602001600182028036833780820191505090505b509050600082602001820190505b60011561291d578080600190039150507f3031323334353637383961626364656600000000000000000000000000000000600a86061a8153600a8581612911576129106144d2565b5b049450600085036128c8575b819350505050919050565b600073ffffffffffffffffffffffffffffffffffffffff168273ffffffffffffffffffffffffffffffffffffffff1603612997576040517f08c379a000000000000000000000000000000000000000000000000000000000815260040161298e9061454d565b60405180910390fd5b6129a08161250b565b156129e0576040517f08c379a00000000000000000000000000000000000000000000000000000000081526004016129d7906145b9565b60405180910390fd5b6129ee60008383600161254c565b6129f78161250b565b15612a37576040517f08c379a0000000000000000000000000000000000000000000000000000000008152600401612a2e906145b9565b60405180910390fd5b6001600360008473ffffffffffffffffffffffffffffffffffffffff1673ffffffffffffffffffffffffffffffffffffffff16815260200190815260200160002060008282540192505081905550816002600083815260200190815260200160002060006101000a81548173ffffffffffffffffffffffffffffffffffffffff021916908373ffffffffffffffffffffffffffffffffffffffff160217905550808273ffffffffffffffffffffffffffffffffffffffff16600073ffffffffffffffffffffffffffffffffffffffff167fddf252ad1be2c89b69c2b068fc378daa952ba7f163c4a11628f55a4df523b3ef60405160405180910390a4612b41600083836001612672565b5050565b6000808273ffffffffffffffffffffffffffffffffffffffff163b119050919050565b600080600090507a184f03e93ff9f4daa797ed6e38ed64bf6a1f0100000000000000008310612bc6577a184f03e93ff9f4daa797ed6e38ed64bf6a1f0100000000000000008381612bbc57612bbb6144d2565b5b0492506040810190505b6d04ee2d6d415b85acef81000000008310612c03576d04ee2d6d415b85acef81000000008381612bf957612bf86144d2565b5b0492506020810190505b662386f26fc100008310612c3257662386f26fc100008381612c2857612c276144d2565b5b0492506010810190505b6305f5e1008310612c5b576305f5e1008381612c5157612c506144d2565b5b0492506008810190505b6127108310612c80576127108381612c7657612c756144d2565b5b0492506004810190505b60648310612ca35760648381612c9957612c986144d2565b5b0492506002810190505b600a8310612cb2576001810190505b80915050919050565b6040518060a0016040528060008152602001600073ffffffffffffffffffffffffffffffffffffffff168152602001600073ffffffffffffffffffffffffffffffffffffffff168152602001600081526020016000151581525090565b6000604051905090565b600080fd5b600080fd5b60007fffffffff0000000000000000000000000000000000000000000000000000000082169050919050565b612d6181612d2c565b8114612d6c57600080fd5b50565b600081359050612d7e81612d58565b92915050565b600060208284031215612d9a57612d99612d22565b5b6000612da884828501612d6f565b91505092915050565b60008115159050919050565b612dc681612db1565b82525050565b6000602082019050612de16000830184612dbd565b92915050565b600081519050919050565b600082825260208201905092915050565b60005b83811015612e21578082015181840152602081019050612e06565b60008484015250505050565b6000601f19601f8301169050919050565b6000612e4982612de7565b612e538185612df2565b9350612e63818560208601612e03565b612e6c81612e2d565b840191505092915050565b60006020820190508181036000830152612e918184612e3e565b905092915050565b6000819050919050565b612eac81612e99565b8114612eb757600080fd5b50565b600081359050612ec981612ea3565b92915050565b600060208284031215612ee557612ee4612d22565b5b6000612ef384828501612eba565b91505092915050565b600073ffffffffffffffffffffffffffffffffffffffff82169050919050565b6000612f2782612efc565b9050919050565b612f3781612f1c565b82525050565b6000602082019050612f526000830184612f2e565b92915050565b612f6181612f1c565b8114612f6c57600080fd5b50565b600081359050612f7e81612f58565b92915050565b60008060408385031215612f9b57612f9a612d22565b5b6000612fa985828601612f6f565b9250506020612fba85828601612eba565b9150509250929050565b600080600060608486031215612fdd57612fdc612d22565b5b6000612feb86828701612f6f565b9350506020612ffc86828701612f6f565b925050604061300d86828701612eba565b9150509250925092565b600080fd5b600080fd5b7f4e487b7100000000000000000000000000000000000000000000000000000000600052604160045260246000fd5b61305982612e2d565b810181811067ffffffffffffffff8211171561307857613077613021565b5b80604052505050565b600061308b612d18565b90506130978282613050565b919050565b600067ffffffffffffffff8211156130b7576130b6613021565b5b6130c082612e2d565b9050602081019050919050565b82818337600083830152505050565b60006130ef6130ea8461309c565b613081565b90508281526020810184848401111561310b5761310a61301c565b5b6131168482856130cd565b509392505050565b600082601f83011261313357613132613017565b5b81356131438482602086016130dc565b91505092915050565b60006020828403121561316257613161612d22565b5b600082013567ffffffffffffffff8111156131805761317f612d27565b5b61318c8482850161311e565b91505092915050565b600081519050919050565b600082825260208201905092915050565b6000819050602082019050919050565b6131ca81612e99565b82525050565b600082825260208201905092915050565b60006131ec82612de7565b6131f681856131d0565b9350613206818560208601612e03565b61320f81612e2d565b840191505092915050565b600060408301600083015161323260008601826131c1565b506020830151848203602086015261324a82826131e1565b9150508091505092915050565b6000613263838361321a565b905092915050565b6000602082019050919050565b600061328382613195565b61328d81856131a0565b93508360208202850161329f856131b1565b8060005b858110156132db57848403895281516132bc8582613257565b94506132c78361326b565b925060208a019950506001810190506132a3565b50829750879550505050505092915050565b600060208201905081810360008301526133078184613278565b905092915050565b61331881612e99565b82525050565b6000602082019050613333600083018461330f565b92915050565b600081519050919050565b600082825260208201905092915050565b6000819050602082019050919050565b600061337082612efc565b9050919050565b61338081613365565b82525050565b61338f81612db1565b82525050565b60a0820160008201516133ab60008501826131c1565b5060208201516133be6020850182613377565b5060408201516133d16040850182613377565b5060608201516133e460608501826131c1565b5060808201516133f76080850182613386565b50505050565b60006134098383613395565b60a08301905092915050565b6000602082019050919050565b600061342d82613339565b6134378185613344565b935061344283613355565b8060005b8381101561347357815161345a88826133fd565b975061346583613415565b925050600181019050613446565b5085935050505092915050565b6000602082019050818103600083015261349a8184613422565b905092915050565b6000602082840312156134b8576134b7612d22565b5b60006134c684828501612f6f565b91505092915050565b600080604083850312156134e6576134e5612d22565b5b600083013567ffffffffffffffff81111561350457613503612d27565b5b6135108582860161311e565b925050602061352185828601612eba565b9150509250929050565b60a08201600082015161354160008501826131c1565b5060208201516135546020850182613377565b5060408201516135676040850182613377565b50606082015161357a60608501826131c1565b50608082015161358d6080850182613386565b50505050565b600060a0820190506135a8600083018461352b565b92915050565b6135b781612db1565b81146135c257600080fd5b50565b6000813590506135d4816135ae565b92915050565b600080604083850312156135f1576135f0612d22565b5b60006135ff85828601612f6f565b9250506020613610858286016135c5565b9150509250929050565b600067ffffffffffffffff82111561363557613634613021565b5b61363e82612e2d565b9050602081019050919050565b600061365e6136598461361a565b613081565b90508281526020810184848401111561367a5761367961301c565b5b6136858482856130cd565b509392505050565b600082601f8301126136a2576136a1613017565b5b81356136b284826020860161364b565b91505092915050565b600080600080608085870312156136d5576136d4612d22565b5b60006136e387828801612f6f565b94505060206136f487828801612f6f565b935050604061370587828801612eba565b925050606085013567ffffffffffffffff81111561372657613725612d27565b5b6137328782880161368d565b91505092959194509250565b6000806040838503121561375557613754612d22565b5b600061376385828601612f6f565b925050602061377485828601612f6f565b9150509250929050565b7f4e487b7100000000000000000000000000000000000000000000000000000000600052602260045260246000fd5b600060028204905060018216806137c557607f821691505b6020821081036137d8576137d761377e565b5b50919050565b7f4552433732313a20617070726f76616c20746f2063757272656e74206f776e6560008201527f7200000000000000000000000000000000000000000000000000000000000000602082015250565b600061383a602183612df2565b9150613845826137de565b604082019050919050565b600060208201905081810360008301526138698161382d565b9050919050565b7f4552433732313a20617070726f76652063616c6c6572206973206e6f7420746f60008201527f6b656e206f776e6572206f7220617070726f76656420666f7220616c6c000000602082015250565b60006138cc603d83612df2565b91506138d782613870565b604082019050919050565b600060208201905081810360008301526138fb816138bf565b9050919050565b7f4552433732313a2063616c6c6572206973206e6f7420746f6b656e206f776e6560008201527f72206f7220617070726f76656400000000000000000000000000000000000000602082015250565b600061395e602d83612df2565b915061396982613902565b604082019050919050565b6000602082019050818103600083015261398d81613951565b9050919050565b7f4e487b7100000000000000000000000000000000000000000000000000000000600052601160045260246000fd5b60006139ce82612e99565b91507fffffffffffffffffffffffffffffffffffffffffffffffffffffffffffffffff8203613a00576139ff613994565b5b600182019050919050565b60008190508160005260206000209050919050565b60006020601f8301049050919050565b600082821b905092915050565b600060088302613a6d7fffffffffffffffffffffffffffffffffffffffffffffffffffffffffffffffff82613a30565b613a778683613a30565b95508019841693508086168417925050509392505050565b6000819050919050565b6000613ab4613aaf613aaa84612e99565b613a8f565b612e99565b9050919050565b6000819050919050565b613ace83613a99565b613ae2613ada82613abb565b848454613a3d565b825550505050565b600090565b613af7613aea565b613b02818484613ac5565b505050565b5b81811015613b2657613b1b600082613aef565b600181019050613b08565b5050565b601f821115613b6b57613b3c81613a0b565b613b4584613a20565b81016020851015613b54578190505b613b68613b6085613a20565b830182613b07565b50505b505050565b600082821c905092915050565b6000613b8e60001984600802613b70565b1980831691505092915050565b6000613ba78383613b7d565b9150826002028217905092915050565b613bc082612de7565b67ffffffffffffffff811115613bd957613bd8613021565b5b613be382546137ad565b613bee828285613b2a565b600060209050601f831160018114613c215760008415613c0f578287015190505b613c198582613b9b565b865550613c81565b601f198416613c2f86613a0b565b60005b82811015613c5757848901518255600182019150602085019450602081019050613c32565b86831015613c745784890151613c70601f891682613b7d565b8355505b6001600288020188555050505b505050505050565b6000604082019050613c9e600083018561330f565b8181036020830152613cb08184612e3e565b90509392505050565b6000613cc482612e99565b9150613ccf83612e99565b9250828201905080821115613ce757613ce6613994565b5b92915050565b7f4e487b7100000000000000000000000000000000000000000000000000000000600052603260045260246000fd5b7f4552433732313a20696e76616c696420746f6b656e2049440000000000000000600082015250565b6000613d52601883612df2565b9150613d5d82613d1c565b602082019050919050565b60006020820190508181036000830152613d8181613d45565b9050919050565b7f4552433732313a2061646472657373207a65726f206973206e6f74206120766160008201527f6c6964206f776e65720000000000000000000000000000000000000000000000602082015250565b6000613de4602983612df2565b9150613def82613d88565b604082019050919050565b60006020820190508181036000830152613e1381613dd7565b9050919050565b7f506c65617365207375626d6974207468652061736b696e67207072696365206960008201527f6e206f7264657220746f20636f6d706c65746520746865207075726368617365602082015250565b6000613e76604083612df2565b9150613e8182613e1a565b604082019050919050565b60006020820190508181036000830152613ea581613e69565b9050919050565b7f4f6e6c79206f776e65722063616e20757064617465206c697374696e6720707260008201527f6963650000000000000000000000000000000000000000000000000000000000602082015250565b6000613f08602383612df2565b9150613f1382613eac565b604082019050919050565b60006020820190508181036000830152613f3781613efb565b9050919050565b600081905092915050565b6000613f5482612de7565b613f5e8185613f3e565b9350613f6e818560208601612e03565b80840191505092915050565b6000613f868285613f49565b9150613f928284613f49565b91508190509392505050565b7f4552433732313a207472616e736665722066726f6d20696e636f72726563742060008201527f6f776e6572000000000000000000000000000000000000000000000000000000602082015250565b6000613ffa602583612df2565b915061400582613f9e565b604082019050919050565b6000602082019050818103600083015261402981613fed565b9050919050565b7f4552433732313a207472616e7366657220746f20746865207a65726f2061646460008201527f7265737300000000000000000000000000000000000000000000000000000000602082015250565b600061408c602483612df2565b915061409782614030565b604082019050919050565b600060208201905081810360008301526140bb8161407f565b9050919050565b7f45524337323155524953746f726167653a2055524920736574206f66206e6f6e60008201527f6578697374656e7420746f6b656e000000000000000000000000000000000000602082015250565b600061411e602e83612df2565b9150614129826140c2565b604082019050919050565b6000602082019050818103600083015261414d81614111565b9050919050565b7f486f706566756c6c792073656e64696e672074686520636f727265637420707260008201527f6963652021000000000000000000000000000000000000000000000000000000602082015250565b60006141b0602583612df2565b91506141bb82614154565b604082019050919050565b600060208201905081810360008301526141df816141a3565b9050919050565b7f4d616b652073757265207468652070726963652069736e2774206e656761746960008201527f7665000000000000000000000000000000000000000000000000000000000000602082015250565b6000614242602283612df2565b915061424d826141e6565b604082019050919050565b6000602082019050818103600083015261427181614235565b9050919050565b600060808201905061428d6000830187612f2e565b61429a6020830186612f2e565b6142a7604083018561330f565b6142b46060830184612dbd565b95945050505050565b7f4552433732313a20617070726f766520746f2063616c6c657200000000000000600082015250565b60006142f3601983612df2565b91506142fe826142bd565b602082019050919050565b60006020820190508181036000830152614322816142e6565b9050919050565b7f4552433732313a207472616e7366657220746f206e6f6e20455243373231526560008201527f63656976657220696d706c656d656e7465720000000000000000000000000000602082015250565b6000614385603283612df2565b915061439082614329565b604082019050919050565b600060208201905081810360008301526143b481614378565b9050919050565b60006143c682612e99565b91506143d183612e99565b92508282039050818111156143e9576143e8613994565b5b92915050565b600081519050919050565b600082825260208201905092915050565b6000614416826143ef565b61442081856143fa565b9350614430818560208601612e03565b61443981612e2d565b840191505092915050565b60006080820190506144596000830187612f2e565b6144666020830186612f2e565b614473604083018561330f565b8181036060830152614485818461440b565b905095945050505050565b60008151905061449f81612d58565b92915050565b6000602082840312156144bb576144ba612d22565b5b60006144c984828501614490565b91505092915050565b7f4e487b7100000000000000000000000000000000000000000000000000000000600052601260045260246000fd5b7f4552433732313a206d696e7420746f20746865207a65726f2061646472657373600082015250565b6000614537602083612df2565b915061454282614501565b602082019050919050565b600060208201905081810360008301526145668161452a565b9050919050565b7f4552433732313a20746f6b656e20616c7265616479206d696e74656400000000600082015250565b60006145a3601c83612df2565b91506145ae8261456d565b602082019050919050565b600060208201905081810360008301526145d281614596565b905091905056fea2646970667358221220fcbe6e97a87e499b5143524f7a2db24fe4608b33a0fa4cf28d81266629dc5c7564736f6c63430008110033",
  "linkReferences": {},
  "deployedLinkReferences": {}
}